:1000000024C031C030C02FC02EC02DC026C12BC08F
:100010002AC029C028C0D1C026C025C024C023C002
:1000200022C021C020C07B3030316D327C33363469
:100030005E355F3638377F387E390020042D5461B5
:1000400045637564036C334D0A7211241FBECFEDF6
:10005000CDBF10E0A0E6B0E001C01D92A237B1070D
:10006000E1F702D087C1CCCF1F938CEF88BB81E032
:1000700087BB8FEF82BB82E081BB479A83E390E02E
:1000800061D01AD178941092710085B78F7A80640C
:1000900085BFF89485B7806285BF7894889585B7C9
:1000A0008F7D85BF789485B7806885BFC09A809121
:1000B00071008823E1F315E0E12FF0E0E759FF4FED
:1000C000808167D01150C0F78AE347D043D1182F01
:1000D00083E015D142D082E012D13FD081E00FD130
:1000E0003CD080E00CD139D080E237D010FF02C084
:1000F00087E633D011FF04C083E62FD08CE62DD0E5
:1001000012FF04C084E629D08CE627D08DE025D0EC
:100110008AE023D05E9BFECF8FEC97E00197F1F74A
:1001200000C00000C09885B78F7785BFACCF07C0EF
:10013000EFE7F7E03197F1F700C000000197009773
:10014000B9F7089592B989B988E18AB98EE083B97F
:1001500008955F9BFECF8CB108955D9BFECF8CB957
:100160000895CF93DF93EC0101C0F7DFFE012196E4
:1001700084918823D1F7DF91CF910895CF93DF93B6
:10018000EC0101C0EADF89918823E1F7DF91CF918B
:1001900008951F93182F82958F708A3010F4805D18
:1001A00001C0895CDADF1F701A3010F4105D01C0E5
:1001B000195C812FD2DF1F9108951F920F920FB605
:1001C0000F9211242F933F934F938F939F93EF930D
:1001D000FF93B19B07C012BE89B7826089BF82E0DE
:1001E00083BF2FC040916000E42FE695E695E69529
:1001F00022B7F0E0842F90E02F3180F0EF59FF4FCD
:100200009C012770307081E090E002C0880F991F38
:100210002A95E2F72081282B208310C0EF59FF4F49
:100220009C012770307081E090E002C0880F991F18
:100230002A95E2F780959081892380834F5F4093D0
:100240006000FF91EF919F918F914F913F912F917E
:100250000F900FBE0F901F9018951F920F920FB620
:100260000F9211242F938F939F93AF93BF93EF938C
:10027000FF9313BE89B78D7F89BFE1E6F0E080E090
:1002800090E02191DC01A759BF4F2C930196883053
:100290009105B9F780916000809371001092600021
:1002A000FF91EF91BF91AF919F918F912F910F90FF
:1002B0000FBE0F901F901895109260001092710061
:1002C00082E080BD8BB780628BBF10BE13BE0895E5
:1002D00020E030E0A901440F551FFA01EA5DFF4F0D
:1002E000E4918E1729F4495D5F4FFA0184910895D6
:1002F0002F5F3F4F2231310569F783E20895813046
:1003000061F0813028F0823069F0833009F50FC048
:1003100020916D0080916E000EC020916C00809144
:100320006D0009C020916B0080916C0004C0209189
:100330006A0080916B0090E08170907036E0880FC9
:10034000991F3A95E1F726952695822BC1DF0895EE
:1003500084E2089580916E0082FD02C080E001C0B9
:1003600082E090916D0091FD816090916A0091FD15
:0803700084600895F894FFCFAA
:00000001FF
